{
  "_format": "hh-sol-artifact-1",
  "contractName": "Cryptomon",
  "sourceName": "contracts/Cryptomon.sol",
  "abi": [
    {
      "inputs": [
        {
          "internalType": "address",
          "name": "_moderatorContractAddress",
          "type": "address"
        }
      ],
      "stateMutability": "nonpayable",
      "type": "constructor"
    },
    {
      "inputs": [
        {
          "internalType": "address",
          "name": "sender",
          "type": "address"
        },
        {
          "internalType": "uint256",
          "name": "tokenId",
          "type": "uint256"
        },
        {
          "internalType": "address",
          "name": "owner",
          "type": "address"
        }
      ],
      "name": "ERC721IncorrectOwner",
      "type": "error"
    },
    {
      "inputs": [
        {
          "internalType": "address",
          "name": "operator",
          "type": "address"
        },
        {
          "internalType": "uint256",
          "name": "tokenId",
          "type": "uint256"
        }
      ],
      "name": "ERC721InsufficientApproval",
      "type": "error"
    },
    {
      "inputs": [
        {
          "internalType": "address",
          "name": "approver",
          "type": "address"
        }
      ],
      "name": "ERC721InvalidApprover",
      "type": "error"
    },
    {
      "inputs": [
        {
          "internalType": "address",
          "name": "operator",
          "type": "address"
        }
      ],
      "name": "ERC721InvalidOperator",
      "type": "error"
    },
    {
      "inputs": [
        {
          "internalType": "address",
          "name": "owner",
          "type": "address"
        }
      ],
      "name": "ERC721InvalidOwner",
      "type": "error"
    },
    {
      "inputs": [
        {
          "internalType": "address",
          "name": "receiver",
          "type": "address"
        }
      ],
      "name": "ERC721InvalidReceiver",
      "type": "error"
    },
    {
      "inputs": [
        {
          "internalType": "address",
          "name": "sender",
          "type": "address"
        }
      ],
      "name": "ERC721InvalidSender",
      "type": "error"
    },
    {
      "inputs": [
        {
          "internalType": "uint256",
          "name": "tokenId",
          "type": "uint256"
        }
      ],
      "name": "ERC721NonexistentToken",
      "type": "error"
    },
    {
      "inputs": [],
      "name": "ReentrancyGuardReentrantCall",
      "type": "error"
    },
    {
      "anonymous": false,
      "inputs": [
        {
          "indexed": true,
          "internalType": "address",
          "name": "owner",
          "type": "address"
        },
        {
          "indexed": true,
          "internalType": "address",
          "name": "approved",
          "type": "address"
        },
        {
          "indexed": true,
          "internalType": "uint256",
          "name": "tokenId",
          "type": "uint256"
        }
      ],
      "name": "Approval",
      "type": "event"
    },
    {
      "anonymous": false,
      "inputs": [
        {
          "indexed": true,
          "internalType": "address",
          "name": "owner",
          "type": "address"
        },
        {
          "indexed": true,
          "internalType": "address",
          "name": "operator",
          "type": "address"
        },
        {
          "indexed": false,
          "internalType": "bool",
          "name": "approved",
          "type": "bool"
        }
      ],
      "name": "ApprovalForAll",
      "type": "event"
    },
    {
      "anonymous": false,
      "inputs": [
        {
          "indexed": false,
          "internalType": "uint256",
          "name": "_fromTokenId",
          "type": "uint256"
        },
        {
          "indexed": false,
          "internalType": "uint256",
          "name": "_toTokenId",
          "type": "uint256"
        }
      ],
      "name": "BatchMetadataUpdate",
      "type": "event"
    },
    {
      "anonymous": false,
      "inputs": [
        {
          "indexed": false,
          "internalType": "uint256",
          "name": "_tokenId",
          "type": "uint256"
        }
      ],
      "name": "MetadataUpdate",
      "type": "event"
    },
    {
      "anonymous": false,
      "inputs": [
        {
          "indexed": true,
          "internalType": "address",
          "name": "from",
          "type": "address"
        },
        {
          "indexed": true,
          "internalType": "address",
          "name": "to",
          "type": "address"
        },
        {
          "indexed": true,
          "internalType": "uint256",
          "name": "tokenId",
          "type": "uint256"
        }
      ],
      "name": "Transfer",
      "type": "event"
    },
    {
      "inputs": [
        {
          "internalType": "address",
          "name": "to",
          "type": "address"
        },
        {
          "internalType": "uint256",
          "name": "tokenId",
          "type": "uint256"
        }
      ],
      "name": "approve",
      "outputs": [],
      "stateMutability": "nonpayable",
      "type": "function"
    },
    {
      "inputs": [
        {
          "internalType": "address",
          "name": "owner",
          "type": "address"
        }
      ],
      "name": "balanceOf",
      "outputs": [
        {
          "internalType": "uint256",
          "name": "",
          "type": "uint256"
        }
      ],
      "stateMutability": "view",
      "type": "function"
    },
    {
      "inputs": [
        {
          "internalType": "uint256",
          "name": "tokenId",
          "type": "uint256"
        }
      ],
      "name": "buyToken",
      "outputs": [],
      "stateMutability": "payable",
      "type": "function"
    },
    {
      "inputs": [
        {
          "internalType": "uint256",
          "name": "tokenId",
          "type": "uint256"
        }
      ],
      "name": "getApproved",
      "outputs": [
        {
          "internalType": "address",
          "name": "",
          "type": "address"
        }
      ],
      "stateMutability": "view",
      "type": "function"
    },
    {
      "inputs": [],
      "name": "getModerator",
      "outputs": [
        {
          "internalType": "address",
          "name": "",
          "type": "address"
        }
      ],
      "stateMutability": "view",
      "type": "function"
    },
    {
      "inputs": [
        {
          "internalType": "uint256",
          "name": "_tokenId",
          "type": "uint256"
        }
      ],
      "name": "getToken",
      "outputs": [
        {
          "internalType": "uint256",
          "name": "tokenId",
          "type": "uint256"
        },
        {
          "internalType": "address",
          "name": "seller",
          "type": "address"
        },
        {
          "internalType": "uint256",
          "name": "price",
          "type": "uint256"
        },
        {
          "internalType": "bool",
          "name": "_isForSale",
          "type": "bool"
        }
      ],
      "stateMutability": "view",
      "type": "function"
    },
    {
      "inputs": [
        {
          "internalType": "uint256",
          "name": "tokenId",
          "type": "uint256"
        }
      ],
      "name": "getTokenPrice",
      "outputs": [
        {
          "internalType": "uint256",
          "name": "",
          "type": "uint256"
        }
      ],
      "stateMutability": "view",
      "type": "function"
    },
    {
      "inputs": [
        {
          "internalType": "address",
          "name": "owner",
          "type": "address"
        },
        {
          "internalType": "address",
          "name": "operator",
          "type": "address"
        }
      ],
      "name": "isApprovedForAll",
      "outputs": [
        {
          "internalType": "bool",
          "name": "",
          "type": "bool"
        }
      ],
      "stateMutability": "view",
      "type": "function"
    },
    {
      "inputs": [
        {
          "internalType": "uint256",
          "name": "tokenId",
          "type": "uint256"
        }
      ],
      "name": "isOnSale",
      "outputs": [
        {
          "internalType": "bool",
          "name": "",
          "type": "bool"
        }
      ],
      "stateMutability": "view",
      "type": "function"
    },
    {
      "inputs": [
        {
          "internalType": "address",
          "name": "owner",
          "type": "address"
        },
        {
          "internalType": "string",
          "name": "metadataURI",
          "type": "string"
        },
        {
          "internalType": "uint256",
          "name": "price",
          "type": "uint256"
        }
      ],
      "name": "mintToken",
      "outputs": [
        {
          "internalType": "uint256",
          "name": "",
          "type": "uint256"
        }
      ],
      "stateMutability": "nonpayable",
      "type": "function"
    },
    {
      "inputs": [],
      "name": "name",
      "outputs": [
        {
          "internalType": "string",
          "name": "",
          "type": "string"
        }
      ],
      "stateMutability": "view",
      "type": "function"
    },
    {
      "inputs": [
        {
          "internalType": "uint256",
          "name": "tokenId",
          "type": "uint256"
        }
      ],
      "name": "ownerOf",
      "outputs": [
        {
          "internalType": "address",
          "name": "",
          "type": "address"
        }
      ],
      "stateMutability": "view",
      "type": "function"
    },
    {
      "inputs": [
        {
          "internalType": "address",
          "name": "from",
          "type": "address"
        },
        {
          "internalType": "address",
          "name": "to",
          "type": "address"
        },
        {
          "internalType": "uint256",
          "name": "tokenId",
          "type": "uint256"
        }
      ],
      "name": "safeTransferFrom",
      "outputs": [],
      "stateMutability": "nonpayable",
      "type": "function"
    },
    {
      "inputs": [
        {
          "internalType": "address",
          "name": "from",
          "type": "address"
        },
        {
          "internalType": "address",
          "name": "to",
          "type": "address"
        },
        {
          "internalType": "uint256",
          "name": "tokenId",
          "type": "uint256"
        },
        {
          "internalType": "bytes",
          "name": "data",
          "type": "bytes"
        }
      ],
      "name": "safeTransferFrom",
      "outputs": [],
      "stateMutability": "nonpayable",
      "type": "function"
    },
    {
      "inputs": [
        {
          "internalType": "address",
          "name": "operator",
          "type": "address"
        },
        {
          "internalType": "bool",
          "name": "approved",
          "type": "bool"
        }
      ],
      "name": "setApprovalForAll",
      "outputs": [],
      "stateMutability": "nonpayable",
      "type": "function"
    },
    {
      "inputs": [
        {
          "internalType": "uint256",
          "name": "tokenId",
          "type": "uint256"
        },
        {
          "internalType": "bool",
          "name": "value",
          "type": "bool"
        }
      ],
      "name": "setOnSale",
      "outputs": [],
      "stateMutability": "nonpayable",
      "type": "function"
    },
    {
      "inputs": [
        {
          "internalType": "uint256",
          "name": "tokenId",
          "type": "uint256"
        },
        {
          "internalType": "uint256",
          "name": "price",
          "type": "uint256"
        }
      ],
      "name": "setTokenPrice",
      "outputs": [],
      "stateMutability": "nonpayable",
      "type": "function"
    },
    {
      "inputs": [
        {
          "internalType": "bytes4",
          "name": "interfaceId",
          "type": "bytes4"
        }
      ],
      "name": "supportsInterface",
      "outputs": [
        {
          "internalType": "bool",
          "name": "",
          "type": "bool"
        }
      ],
      "stateMutability": "view",
      "type": "function"
    },
    {
      "inputs": [],
      "name": "symbol",
      "outputs": [
        {
          "internalType": "string",
          "name": "",
          "type": "string"
        }
      ],
      "stateMutability": "view",
      "type": "function"
    },
    {
      "inputs": [
        {
          "internalType": "uint256",
          "name": "tokenId",
          "type": "uint256"
        }
      ],
      "name": "tokenURI",
      "outputs": [
        {
          "internalType": "string",
          "name": "",
          "type": "string"
        }
      ],
      "stateMutability": "view",
      "type": "function"
    },
    {
      "inputs": [],
      "name": "totalSupply",
      "outputs": [
        {
          "internalType": "uint256",
          "name": "",
          "type": "uint256"
        }
      ],
      "stateMutability": "view",
      "type": "function"
    },
    {
      "inputs": [
        {
          "internalType": "address",
          "name": "from",
          "type": "address"
        },
        {
          "internalType": "address",
          "name": "to",
          "type": "address"
        },
        {
          "internalType": "uint256",
          "name": "tokenId",
          "type": "uint256"
        }
      ],
      "name": "transferFrom",
      "outputs": [],
      "stateMutability": "nonpayable",
      "type": "function"
    }
  ],
  "bytecode": "0x60a060405234801561001057600080fd5b50604051613aee380380613aee83398181016040528101906100329190610165565b6040518060400160405280600981526020017f43727970746f6d6f6e00000000000000000000000000000000000000000000008152506040518060400160405280600381526020017f434d4f000000000000000000000000000000000000000000000000000000000081525081600090816100ad91906103e2565b5080600190816100bd91906103e2565b50505060016007819055508073ffffffffffffffffffffffffffffffffffffffff1660808173ffffffffffffffffffffffffffffffffffffffff1681525050506104b4565b600080fd5b600073ffffffffffffffffffffffffffffffffffffffff82169050919050565b600061013282610107565b9050919050565b61014281610127565b811461014d57600080fd5b50565b60008151905061015f81610139565b92915050565b60006020828403121561017b5761017a610102565b5b600061018984828501610150565b91505092915050565b600081519050919050565b7f4e487b7100000000000000000000000000000000000000000000000000000000600052604160045260246000fd5b7f4e487b7100000000000000000000000000000000000000000000000000000000600052602260045260246000fd5b6000600282049050600182168061021357607f821691505b602082108103610226576102256101cc565b5b50919050565b60008190508160005260206000209050919050565b60006020601f8301049050919050565b600082821b905092915050565b60006008830261028e7fffffffffffffffffffffffffffffffffffffffffffffffffffffffffffffffff82610251565b6102988683610251565b95508019841693508086168417925050509392505050565b6000819050919050565b6000819050919050565b60006102df6102da6102d5846102b0565b6102ba565b6102b0565b9050919050565b6000819050919050565b6102f9836102c4565b61030d610305826102e6565b84845461025e565b825550505050565b600090565b610322610315565b61032d8184846102f0565b505050565b5b818110156103515761034660008261031a565b600181019050610333565b5050565b601f821115610396576103678161022c565b61037084610241565b8101602085101561037f578190505b61039361038b85610241565b830182610332565b50505b505050565b600082821c905092915050565b60006103b96000198460080261039b565b1980831691505092915050565b60006103d283836103a8565b9150826002028217905092915050565b6103eb82610192565b67ffffffffffffffff8111156104045761040361019d565b5b61040e82546101fb565b610419828285610355565b600060209050601f83116001811461044c576000841561043a578287015190505b61044485826103c6565b8655506104ac565b601f19841661045a8661022c565b60005b828110156104825784890151825560018201915060208501945060208101905061045d565b8683101561049f578489015161049b601f8916826103a8565b8355505b6001600288020188555050505b505050505050565b60805161361f6104cf6000396000610b82015261361f6000f3fe6080604052600436106101355760003560e01c80636352211e116100ab578063c457fb371161006f578063c457fb3714610429578063c87b56dd14610466578063e4b50cb8146104a3578063e985e9c5146104e3578063eb685c4714610520578063f0f2805f1461054957610135565b80636352211e1461033257806370a082311461036f57806395d89b41146103ac578063a22cb465146103d7578063b88d4fde1461040057610135565b806323b872dd116100fd57806323b872dd146102335780632d296bf11461025c57806342842e0e1461027857806348adfbdb146102a15780634d0a2c24146102cc578063611b2fed146102f557610135565b806301ffc9a71461013a57806306fdde0314610177578063081812fc146101a2578063095ea7b3146101df57806318160ddd14610208575b600080fd5b34801561014657600080fd5b50610161600480360381019061015c9190612643565b610586565b60405161016e919061268b565b60405180910390f35b34801561018357600080fd5b5061018c6105e7565b6040516101999190612736565b60405180910390f35b3480156101ae57600080fd5b506101c960048036038101906101c4919061278e565b610679565b6040516101d691906127fc565b60405180910390f35b3480156101eb57600080fd5b5061020660048036038101906102019190612843565b610695565b005b34801561021457600080fd5b5061021d6106ab565b60405161022a9190612892565b60405180910390f35b34801561023f57600080fd5b5061025a600480360381019061025591906128ad565b6106b5565b005b6102766004803603810190610271919061278e565b6107b7565b005b34801561028457600080fd5b5061029f600480360381019061029a91906128ad565b610b5e565b005b3480156102ad57600080fd5b506102b6610b7e565b6040516102c391906127fc565b60405180910390f35b3480156102d857600080fd5b506102f360048036038101906102ee919061292c565b610c14565b005b34801561030157600080fd5b5061031c60048036038101906103179190612aa1565b610d0d565b6040516103299190612892565b60405180910390f35b34801561033e57600080fd5b506103596004803603810190610354919061278e565b610e7d565b60405161036691906127fc565b60405180910390f35b34801561037b57600080fd5b5061039660048036038101906103919190612b10565b610e8f565b6040516103a39190612892565b60405180910390f35b3480156103b857600080fd5b506103c1610f49565b6040516103ce9190612736565b60405180910390f35b3480156103e357600080fd5b506103fe60048036038101906103f99190612b3d565b610fdb565b005b34801561040c57600080fd5b5061042760048036038101906104229190612c1e565b610ff1565b005b34801561043557600080fd5b50610450600480360381019061044b919061278e565b611016565b60405161045d9190612892565b60405180910390f35b34801561047257600080fd5b5061048d6004803603810190610488919061278e565b6110ea565b60405161049a9190612736565b60405180910390f35b3480156104af57600080fd5b506104ca60048036038101906104c5919061278e565b6111fd565b6040516104da9493929190612ca1565b60405180910390f35b3480156104ef57600080fd5b5061050a60048036038101906105059190612ce6565b611311565b604051610517919061268b565b60405180910390f35b34801561052c57600080fd5b5061054760048036038101906105429190612d26565b6113a5565b005b34801561055557600080fd5b50610570600480360381019061056b919061278e565b6114ba565b60405161057d919061268b565b60405180910390f35b6000634906490660e01b7bffffffffffffffffffffffffffffffffffffffffffffffffffffffff1916827bffffffffffffffffffffffffffffffffffffffffffffffffffffffff191614806105e057506105df82611538565b5b9050919050565b6060600080546105f690612d95565b80601f016020809104026020016040519081016040528092919081815260200182805461062290612d95565b801561066f5780601f106106445761010080835404028352916020019161066f565b820191906000526020600020905b81548152906001019060200180831161065257829003601f168201915b5050505050905090565b60006106848261161a565b5061068e826116a2565b9050919050565b6106a782826106a26116df565b6116e7565b5050565b6000600854905090565b600073ffffffffffffffffffffffffffffffffffffffff168273ffffffffffffffffffffffffffffffffffffffff16036107275760006040517f64a0ae9200000000000000000000000000000000000000000000000000000000815260040161071e91906127fc565b60405180910390fd5b600061073b83836107366116df565b6116f9565b90508373ffffffffffffffffffffffffffffffffffffffff168173ffffffffffffffffffffffffffffffffffffffff16146107b1578382826040517f64283d7b0000000000000000000000000000000000000000000000000000000081526004016107a893929190612dc6565b60405180910390fd5b50505050565b6107bf611913565b60085481111580156107d15750600081115b610810576040517f08c379a000000000000000000000000000000000000000000000000000000000815260040161080790612e49565b60405180910390fd5b6009600082815260200190815260200160002060020160009054906101000a900460ff16610873576040517f08c379a000000000000000000000000000000000000000000000000000000000815260040161086a90612eb5565b60405180910390fd5b3373ffffffffffffffffffffffffffffffffffffffff16610892610b7e565b73ffffffffffffffffffffffffffffffffffffffff16036108e8576040517f08c379a00000000000000000000000000000000000000000000000000000000081526004016108df90612f21565b60405180910390fd5b6000600960008381526020019081526020016000206040518060600160405290816000820160009054906101000a900473ffffffffffffffffffffffffffffffffffffffff1673ffffffffffffffffffffffffffffffffffffffff1673ffffffffffffffffffffffffffffffffffffffff168152602001600182015481526020016002820160009054906101000a900460ff161515151581525050905060008160000151905081602001513410156109d5576040517f08c379a00000000000000000000000000000000000000000000000000000000081526004016109cc90612f8d565b60405180910390fd5b3373ffffffffffffffffffffffffffffffffffffffff168173ffffffffffffffffffffffffffffffffffffffff1603610a43576040517f08c379a0000000000000000000000000000000000000000000000000000000008152600401610a3a90612ff9565b60405180910390fd5b8073ffffffffffffffffffffffffffffffffffffffff166108fc349081150290604051600060405180830381858888f19350505050158015610a89573d6000803e3d6000fd5b50610a95813385611959565b60405180606001604052803373ffffffffffffffffffffffffffffffffffffffff16815260200160008152602001600015158152506009600085815260200190815260200160002060008201518160000160006101000a81548173ffffffffffffffffffffffffffffffffffffffff021916908373ffffffffffffffffffffffffffffffffffffffff1602179055506020820151816001015560408201518160020160006101000a81548160ff0219169083151502179055509050505050610b5b611ac6565b50565b610b7983838360405180602001604052806000815250610ff1565b505050565b60007f000000000000000000000000000000000000000000000000000000000000000073ffffffffffffffffffffffffffffffffffffffff16638da5cb5b6040518163ffffffff1660e01b8152600401602060405180830381865afa158015610beb573d6000803e3d6000fd5b505050506040513d601f19601f82011682018060405250810190610c0f919061302e565b905090565b6008548211158015610c265750600082115b610c65576040517f08c379a0000000000000000000000000000000000000000000000000000000008152600401610c5c90612e49565b60405180910390fd5b3373ffffffffffffffffffffffffffffffffffffffff16610c8583610e7d565b73ffffffffffffffffffffffffffffffffffffffff1614610cdb576040517f08c379a0000000000000000000000000000000000000000000000000000000008152600401610cd2906130a7565b60405180910390fd5b806009600084815260200190815260200160002060020160006101000a81548160ff0219169083151502179055505050565b6000610d17610b7e565b73ffffffffffffffffffffffffffffffffffffffff163373ffffffffffffffffffffffffffffffffffffffff1614610d84576040517f08c379a0000000000000000000000000000000000000000000000000000000008152600401610d7b90613139565b60405180910390fd5b60086000815480929190610d9790613188565b919050555060006008549050610dad8582611ad0565b610db78185611bc9565b60405180606001604052808673ffffffffffffffffffffffffffffffffffffffff168152602001848152602001600115158152506009600083815260200190815260200160002060008201518160000160006101000a81548173ffffffffffffffffffffffffffffffffffffffff021916908373ffffffffffffffffffffffffffffffffffffffff1602179055506020820151816001015560408201518160020160006101000a81548160ff021916908315150217905550905050809150509392505050565b6000610e888261161a565b9050919050565b60008073ffffffffffffffffffffffffffffffffffffffff168273ffffffffffffffffffffffffffffffffffffffff1603610f025760006040517f89c62b64000000000000000000000000000000000000000000000000000000008152600401610ef991906127fc565b60405180910390fd5b600360008373ffffffffffffffffffffffffffffffffffffffff1673ffffffffffffffffffffffffffffffffffffffff168152602001908152602001600020549050919050565b606060018054610f5890612d95565b80601f0160208091040260200160405190810160405280929190818152602001828054610f8490612d95565b8015610fd15780601f10610fa657610100808354040283529160200191610fd1565b820191906000526020600020905b815481529060010190602001808311610fb457829003601f168201915b5050505050905090565b610fed610fe66116df565b8383611c25565b5050565b610ffc8484846106b5565b6110106110076116df565b85858585611d94565b50505050565b6000600854821115801561102a5750600082115b611069576040517f08c379a000000000000000000000000000000000000000000000000000000000815260040161106090612e49565b60405180910390fd5b6009600083815260200190815260200160002060020160009054906101000a900460ff166110cc576040517f08c379a00000000000000000000000000000000000000000000000000000000081526004016110c390612eb5565b60405180910390fd5b60096000838152602001908152602001600020600101549050919050565b60606110f58261161a565b50600060066000848152602001908152602001600020805461111690612d95565b80601f016020809104026020016040519081016040528092919081815260200182805461114290612d95565b801561118f5780601f106111645761010080835404028352916020019161118f565b820191906000526020600020905b81548152906001019060200180831161117257829003601f168201915b5050505050905060006111a0611f45565b905060008151036111b55781925050506111f8565b6000825111156111ea5780826040516020016111d292919061320c565b604051602081830303815290604052925050506111f8565b6111f384611f5c565b925050505b919050565b60008060008060085485111580156112155750600085115b611254576040517f08c379a000000000000000000000000000000000000000000000000000000000815260040161124b90612e49565b60405180910390fd5b6000600960008781526020019081526020016000206040518060600160405290816000820160009054906101000a900473ffffffffffffffffffffffffffffffffffffffff1673ffffffffffffffffffffffffffffffffffffffff1673ffffffffffffffffffffffffffffffffffffffff168152602001600182015481526020016002820160009054906101000a900460ff1615151515815250509050858160000151826020015183604001519450945094509450509193509193565b6000600560008473ffffffffffffffffffffffffffffffffffffffff1673ffffffffffffffffffffffffffffffffffffffff16815260200190815260200160002060008373ffffffffffffffffffffffffffffffffffffffff1673ffffffffffffffffffffffffffffffffffffffff16815260200190815260200160002060009054906101000a900460ff16905092915050565b60085482111580156113b75750600082115b6113f6576040517f08c379a00000000000000000000000000000000000000000000000000000000081526004016113ed90612e49565b60405180910390fd5b3373ffffffffffffffffffffffffffffffffffffffff1661141683610e7d565b73ffffffffffffffffffffffffffffffffffffffff161461146c576040517f08c379a0000000000000000000000000000000000000000000000000000000008152600401611463906130a7565b60405180910390fd5b60016009600084815260200190815260200160002060020160006101000a81548160ff0219169083151502179055508060096000848152602001908152602001600020600101819055505050565b600060085482111580156114ce5750600082115b61150d576040517f08c379a000000000000000000000000000000000000000000000000000000000815260040161150490612e49565b60405180910390fd5b6009600083815260200190815260200160002060020160009054906101000a900460ff169050919050565b60007f80ac58cd000000000000000000000000000000000000000000000000000000007bffffffffffffffffffffffffffffffffffffffffffffffffffffffff1916827bffffffffffffffffffffffffffffffffffffffffffffffffffffffff1916148061160357507f5b5e139f000000000000000000000000000000000000000000000000000000007bffffffffffffffffffffffffffffffffffffffffffffffffffffffff1916827bffffffffffffffffffffffffffffffffffffffffffffffffffffffff1916145b80611613575061161282611fc5565b5b9050919050565b6000806116268361202f565b9050600073ffffffffffffffffffffffffffffffffffffffff168173ffffffffffffffffffffffffffffffffffffffff160361169957826040517f7e2732890000000000000000000000000000000000000000000000000000000081526004016116909190612892565b60405180910390fd5b80915050919050565b60006004600083815260200190815260200160002060009054906101000a900473ffffffffffffffffffffffffffffffffffffffff169050919050565b600033905090565b6116f4838383600161206c565b505050565b6000806117058461202f565b9050600073ffffffffffffffffffffffffffffffffffffffff168373ffffffffffffffffffffffffffffffffffffffff161461174757611746818486612231565b5b600073ffffffffffffffffffffffffffffffffffffffff168173ffffffffffffffffffffffffffffffffffffffff16146117d85761178960008560008061206c565b6001600360008373ffffffffffffffffffffffffffffffffffffffff1673ffffffffffffffffffffffffffffffffffffffff168152602001908152602001600020600082825403925050819055505b600073ffffffffffffffffffffffffffffffffffffffff168573ffffffffffffffffffffffffffffffffffffffff161461185b576001600360008773ffffffffffffffffffffffffffffffffffffffff1673ffffffffffffffffffffffffffffffffffffffff168152602001908152602001600020600082825401925050819055505b846002600086815260200190815260200160002060006101000a81548173ffffffffffffffffffffffffffffffffffffffff021916908373ffffffffffffffffffffffffffffffffffffffff160217905550838573ffffffffffffffffffffffffffffffffffffffff168273ffffffffffffffffffffffffffffffffffffffff167fddf252ad1be2c89b69c2b068fc378daa952ba7f163c4a11628f55a4df523b3ef60405160405180910390a4809150509392505050565b60026007540361194f576040517f3ee5aeb500000000000000000000000000000000000000000000000000000000815260040160405180910390fd5b6002600781905550565b600073ffffffffffffffffffffffffffffffffffffffff168273ffffffffffffffffffffffffffffffffffffffff16036119cb5760006040517f64a0ae920000000000000000000000000000000000000000000000000000000081526004016119c291906127fc565b60405180910390fd5b60006119d9838360006116f9565b9050600073ffffffffffffffffffffffffffffffffffffffff168173ffffffffffffffffffffffffffffffffffffffff1603611a4c57816040517f7e273289000000000000000000000000000000000000000000000000000000008152600401611a439190612892565b60405180910390fd5b8373ffffffffffffffffffffffffffffffffffffffff168173ffffffffffffffffffffffffffffffffffffffff1614611ac0578382826040517f64283d7b000000000000000000000000000000000000000000000000000000008152600401611ab793929190612dc6565b60405180910390fd5b50505050565b6001600781905550565b600073ffffffffffffffffffffffffffffffffffffffff168273ffffffffffffffffffffffffffffffffffffffff1603611b425760006040517f64a0ae92000000000000000000000000000000000000000000000000000000008152600401611b3991906127fc565b60405180910390fd5b6000611b50838360006116f9565b9050600073ffffffffffffffffffffffffffffffffffffffff168173ffffffffffffffffffffffffffffffffffffffff1614611bc45760006040517f73c6ac6e000000000000000000000000000000000000000000000000000000008152600401611bbb91906127fc565b60405180910390fd5b505050565b80600660008481526020019081526020016000209081611be991906133dc565b507ff8e1a15aba9398e019f0b49df1a4fde98ee17ae345cb5f6b5e2c27f5033e8ce782604051611c199190612892565b60405180910390a15050565b600073ffffffffffffffffffffffffffffffffffffffff168273ffffffffffffffffffffffffffffffffffffffff1603611c9657816040517f5b08ba18000000000000000000000000000000000000000000000000000000008152600401611c8d91906127fc565b60405180910390fd5b80600560008573ffffffffffffffffffffffffffffffffffffffff1673ffffffffffffffffffffffffffffffffffffffff16815260200190815260200160002060008473ffffffffffffffffffffffffffffffffffffffff1673ffffffffffffffffffffffffffffffffffffffff16815260200190815260200160002060006101000a81548160ff0219169083151502179055508173ffffffffffffffffffffffffffffffffffffffff168373ffffffffffffffffffffffffffffffffffffffff167f17307eab39ab6107e8899845ad3d59bd9653f200f220920489ca2b5937696c3183604051611d87919061268b565b60405180910390a3505050565b60008373ffffffffffffffffffffffffffffffffffffffff163b1115611f3e578273ffffffffffffffffffffffffffffffffffffffff1663150b7a02868685856040518563ffffffff1660e01b8152600401611df39493929190613503565b6020604051808303816000875af1925050508015611e2f57506040513d601f19601f82011682018060405250810190611e2c9190613564565b60015b611eb3573d8060008114611e5f576040519150601f19603f3d011682016040523d82523d6000602084013e611e64565b606091505b506000815103611eab57836040517f64a0ae92000000000000000000000000000000000000000000000000000000008152600401611ea291906127fc565b60405180910390fd5b805181602001fd5b63150b7a0260e01b7bffffffffffffffffffffffffffffffffffffffffffffffffffffffff1916817bffffffffffffffffffffffffffffffffffffffffffffffffffffffff191614611f3c57836040517f64a0ae92000000000000000000000000000000000000000000000000000000008152600401611f3391906127fc565b60405180910390fd5b505b5050505050565b606060405180602001604052806000815250905090565b6060611f678261161a565b506000611f72611f45565b90506000815111611f925760405180602001604052806000815250611fbd565b80611f9c846122f5565b604051602001611fad92919061320c565b6040516020818303038152906040525b915050919050565b60007f01ffc9a7000000000000000000000000000000000000000000000000000000007bffffffffffffffffffffffffffffffffffffffffffffffffffffffff1916827bffffffffffffffffffffffffffffffffffffffffffffffffffffffff1916149050919050565b60006002600083815260200190815260200160002060009054906101000a900473ffffffffffffffffffffffffffffffffffffffff169050919050565b80806120a55750600073ffffffffffffffffffffffffffffffffffffffff168273ffffffffffffffffffffffffffffffffffffffff1614155b156121d95760006120b58461161a565b9050600073ffffffffffffffffffffffffffffffffffffffff168373ffffffffffffffffffffffffffffffffffffffff161415801561212057508273ffffffffffffffffffffffffffffffffffffffff168173ffffffffffffffffffffffffffffffffffffffff1614155b801561213357506121318184611311565b155b1561217557826040517fa9fbf51f00000000000000000000000000000000000000000000000000000000815260040161216c91906127fc565b60405180910390fd5b81156121d757838573ffffffffffffffffffffffffffffffffffffffff168273ffffffffffffffffffffffffffffffffffffffff167f8c5be1e5ebec7d5bd14f71427d1e84f3dd0314c0f7b2291e5b200ac8c7c3b92560405160405180910390a45b505b836004600085815260200190815260200160002060006101000a81548173ffffffffffffffffffffffffffffffffffffffff021916908373ffffffffffffffffffffffffffffffffffffffff16021790555050505050565b61223c8383836123c3565b6122f057600073ffffffffffffffffffffffffffffffffffffffff168373ffffffffffffffffffffffffffffffffffffffff16036122b157806040517f7e2732890000000000000000000000000000000000000000000000000000000081526004016122a89190612892565b60405180910390fd5b81816040517f177e802f0000000000000000000000000000000000000000000000000000000081526004016122e7929190613591565b60405180910390fd5b505050565b60606000600161230484612484565b01905060008167ffffffffffffffff81111561232357612322612976565b5b6040519080825280601f01601f1916602001820160405280156123555781602001600182028036833780820191505090505b509050600082602001820190505b6001156123b8578080600190039150507f3031323334353637383961626364656600000000000000000000000000000000600a86061a8153600a85816123ac576123ab6135ba565b5b04945060008503612363575b819350505050919050565b60008073ffffffffffffffffffffffffffffffffffffffff168373ffffffffffffffffffffffffffffffffffffffff161415801561247b57508273ffffffffffffffffffffffffffffffffffffffff168473ffffffffffffffffffffffffffffffffffffffff16148061243c575061243b8484611311565b5b8061247a57508273ffffffffffffffffffffffffffffffffffffffff16612462836116a2565b73ffffffffffffffffffffffffffffffffffffffff16145b5b90509392505050565b600080600090507a184f03e93ff9f4daa797ed6e38ed64bf6a1f01000000000000000083106124e2577a184f03e93ff9f4daa797ed6e38ed64bf6a1f01000000000000000083816124d8576124d76135ba565b5b0492506040810190505b6d04ee2d6d415b85acef8100000000831061251f576d04ee2d6d415b85acef81000000008381612515576125146135ba565b5b0492506020810190505b662386f26fc10000831061254e57662386f26fc100008381612544576125436135ba565b5b0492506010810190505b6305f5e1008310612577576305f5e100838161256d5761256c6135ba565b5b0492506008810190505b612710831061259c576127108381612592576125916135ba565b5b0492506004810190505b606483106125bf57606483816125b5576125b46135ba565b5b0492506002810190505b600a83106125ce576001810190505b80915050919050565b6000604051905090565b600080fd5b600080fd5b60007fffffffff0000000000000000000000000000000000000000000000000000000082169050919050565b612620816125eb565b811461262b57600080fd5b50565b60008135905061263d81612617565b92915050565b600060208284031215612659576126586125e1565b5b60006126678482850161262e565b91505092915050565b60008115159050919050565b61268581612670565b82525050565b60006020820190506126a0600083018461267c565b92915050565b600081519050919050565b600082825260208201905092915050565b60005b838110156126e05780820151818401526020810190506126c5565b60008484015250505050565b6000601f19601f8301169050919050565b6000612708826126a6565b61271281856126b1565b93506127228185602086016126c2565b61272b816126ec565b840191505092915050565b6000602082019050818103600083015261275081846126fd565b905092915050565b6000819050919050565b61276b81612758565b811461277657600080fd5b50565b60008135905061278881612762565b92915050565b6000602082840312156127a4576127a36125e1565b5b60006127b284828501612779565b91505092915050565b600073ffffffffffffffffffffffffffffffffffffffff82169050919050565b60006127e6826127bb565b9050919050565b6127f6816127db565b82525050565b600060208201905061281160008301846127ed565b92915050565b612820816127db565b811461282b57600080fd5b50565b60008135905061283d81612817565b92915050565b6000806040838503121561285a576128596125e1565b5b60006128688582860161282e565b925050602061287985828601612779565b9150509250929050565b61288c81612758565b82525050565b60006020820190506128a76000830184612883565b92915050565b6000806000606084860312156128c6576128c56125e1565b5b60006128d48682870161282e565b93505060206128e58682870161282e565b92505060406128f686828701612779565b9150509250925092565b61290981612670565b811461291457600080fd5b50565b60008135905061292681612900565b92915050565b60008060408385031215612943576129426125e1565b5b600061295185828601612779565b925050602061296285828601612917565b9150509250929050565b600080fd5b600080fd5b7f4e487b7100000000000000000000000000000000000000000000000000000000600052604160045260246000fd5b6129ae826126ec565b810181811067ffffffffffffffff821117156129cd576129cc612976565b5b80604052505050565b60006129e06125d7565b90506129ec82826129a5565b919050565b600067ffffffffffffffff821115612a0c57612a0b612976565b5b612a15826126ec565b9050602081019050919050565b82818337600083830152505050565b6000612a44612a3f846129f1565b6129d6565b905082815260208101848484011115612a6057612a5f612971565b5b612a6b848285612a22565b509392505050565b600082601f830112612a8857612a8761296c565b5b8135612a98848260208601612a31565b91505092915050565b600080600060608486031215612aba57612ab96125e1565b5b6000612ac88682870161282e565b935050602084013567ffffffffffffffff811115612ae957612ae86125e6565b5b612af586828701612a73565b9250506040612b0686828701612779565b9150509250925092565b600060208284031215612b2657612b256125e1565b5b6000612b348482850161282e565b91505092915050565b60008060408385031215612b5457612b536125e1565b5b6000612b628582860161282e565b9250506020612b7385828601612917565b9150509250929050565b600067ffffffffffffffff821115612b9857612b97612976565b5b612ba1826126ec565b9050602081019050919050565b6000612bc1612bbc84612b7d565b6129d6565b905082815260208101848484011115612bdd57612bdc612971565b5b612be8848285612a22565b509392505050565b600082601f830112612c0557612c0461296c565b5b8135612c15848260208601612bae565b91505092915050565b60008060008060808587031215612c3857612c376125e1565b5b6000612c468782880161282e565b9450506020612c578782880161282e565b9350506040612c6887828801612779565b925050606085013567ffffffffffffffff811115612c8957612c886125e6565b5b612c9587828801612bf0565b91505092959194509250565b6000608082019050612cb66000830187612883565b612cc360208301866127ed565b612cd06040830185612883565b612cdd606083018461267c565b95945050505050565b60008060408385031215612cfd57612cfc6125e1565b5b6000612d0b8582860161282e565b9250506020612d1c8582860161282e565b9150509250929050565b60008060408385031215612d3d57612d3c6125e1565b5b6000612d4b85828601612779565b9250506020612d5c85828601612779565b9150509250929050565b7f4e487b7100000000000000000000000000000000000000000000000000000000600052602260045260246000fd5b60006002820490506001821680612dad57607f821691505b602082108103612dc057612dbf612d66565b5b50919050565b6000606082019050612ddb60008301866127ed565b612de86020830185612883565b612df560408301846127ed565b949350505050565b7f77726f6e6720746f6b656e206964000000000000000000000000000000000000600082015250565b6000612e33600e836126b1565b9150612e3e82612dfd565b602082019050919050565b60006020820190508181036000830152612e6281612e26565b9050919050565b7f746f6b656e206973206e6f7420666f722073616c650000000000000000000000600082015250565b6000612e9f6015836126b1565b9150612eaa82612e69565b602082019050919050565b60006020820190508181036000830152612ece81612e92565b9050919050565b7f6d6f64657261746f722063616e277420627579206e6674730000000000000000600082015250565b6000612f0b6018836126b1565b9150612f1682612ed5565b602082019050919050565b60006020820190508181036000830152612f3a81612efe565b9050919050565b7f696e73756666696369656e7420616d6f756e74206f6620455448000000000000600082015250565b6000612f77601a836126b1565b9150612f8282612f41565b602082019050919050565b60006020820190508181036000830152612fa681612f6a565b9050919050565b7f63616e6e6f742062757920796f7572206f776e20746f6b656e00000000000000600082015250565b6000612fe36019836126b1565b9150612fee82612fad565b602082019050919050565b6000602082019050818103600083015261301281612fd6565b9050919050565b60008151905061302881612817565b92915050565b600060208284031215613044576130436125e1565b5b600061305284828501613019565b91505092915050565b7f6e6f742074686520746f6b656e206f776e657200000000000000000000000000600082015250565b60006130916013836126b1565b915061309c8261305b565b602082019050919050565b600060208201905081810360008301526130c081613084565b9050919050565b7f6f6e6c79206d6f64657261746f722063616e2063616c6c20746869732066756e60008201527f6374696f6e000000000000000000000000000000000000000000000000000000602082015250565b60006131236025836126b1565b915061312e826130c7565b604082019050919050565b6000602082019050818103600083015261315281613116565b9050919050565b7f4e487b7100000000000000000000000000000000000000000000000000000000600052601160045260246000fd5b600061319382612758565b91507fffffffffffffffffffffffffffffffffffffffffffffffffffffffffffffffff82036131c5576131c4613159565b5b600182019050919050565b600081905092915050565b60006131e6826126a6565b6131f081856131d0565b93506132008185602086016126c2565b80840191505092915050565b600061321882856131db565b915061322482846131db565b91508190509392505050565b60008190508160005260206000209050919050565b60006020601f8301049050919050565b600082821b905092915050565b6000600883026132927fffffffffffffffffffffffffffffffffffffffffffffffffffffffffffffffff82613255565b61329c8683613255565b95508019841693508086168417925050509392505050565b6000819050919050565b60006132d96132d46132cf84612758565b6132b4565b612758565b9050919050565b6000819050919050565b6132f3836132be565b6133076132ff826132e0565b848454613262565b825550505050565b600090565b61331c61330f565b6133278184846132ea565b505050565b5b8181101561334b57613340600082613314565b60018101905061332d565b5050565b601f8211156133905761336181613230565b61336a84613245565b81016020851015613379578190505b61338d61338585613245565b83018261332c565b50505b505050565b600082821c905092915050565b60006133b360001984600802613395565b1980831691505092915050565b60006133cc83836133a2565b9150826002028217905092915050565b6133e5826126a6565b67ffffffffffffffff8111156133fe576133fd612976565b5b6134088254612d95565b61341382828561334f565b600060209050601f8311600181146134465760008415613434578287015190505b61343e85826133c0565b8655506134a6565b601f19841661345486613230565b60005b8281101561347c57848901518255600182019150602085019450602081019050613457565b868310156134995784890151613495601f8916826133a2565b8355505b6001600288020188555050505b505050505050565b600081519050919050565b600082825260208201905092915050565b60006134d5826134ae565b6134df81856134b9565b93506134ef8185602086016126c2565b6134f8816126ec565b840191505092915050565b600060808201905061351860008301876127ed565b61352560208301866127ed565b6135326040830185612883565b818103606083015261354481846134ca565b905095945050505050565b60008151905061355e81612617565b92915050565b60006020828403121561357a576135796125e1565b5b60006135888482850161354f565b91505092915050565b60006040820190506135a660008301856127ed565b6135b36020830184612883565b9392505050565b7f4e487b7100000000000000000000000000000000000000000000000000000000600052601260045260246000fdfea2646970667358221220da1c21f49f6d20486e903e6c92341522a85fe083627da53c623d0e7ead5483d464736f6c634300081c0033",
  "linkReferences": {},
  "deployedLinkReferences": {}
}